{
  "_format": "hh-sol-artifact-1",
  "contractName": "WarriorNFT",
  "sourceName": "contracts/WarriorNFT.sol",
  "abi": [
    {
      "inputs": [
        {
          "internalType": "string",
          "name": "baseURI",
          "type": "string"
        }
      ],
      "stateMutability": "nonpayable",
      "type": "constructor"
    },
    {
      "inputs": [
        {
          "internalType": "address",
          "name": "sender",
          "type": "address"
        },
        {
          "internalType": "uint256",
          "name": "tokenId",
          "type": "uint256"
        },
        {
          "internalType": "address",
          "name": "owner",
          "type": "address"
        }
      ],
      "name": "ERC721IncorrectOwner",
      "type": "error"
    },
    {
      "inputs": [
        {
          "internalType": "address",
          "name": "operator",
          "type": "address"
        },
        {
          "internalType": "uint256",
          "name": "tokenId",
          "type": "uint256"
        }
      ],
      "name": "ERC721InsufficientApproval",
      "type": "error"
    },
    {
      "inputs": [
        {
          "internalType": "address",
          "name": "approver",
          "type": "address"
        }
      ],
      "name": "ERC721InvalidApprover",
      "type": "error"
    },
    {
      "inputs": [
        {
          "internalType": "address",
          "name": "operator",
          "type": "address"
        }
      ],
      "name": "ERC721InvalidOperator",
      "type": "error"
    },
    {
      "inputs": [
        {
          "internalType": "address",
          "name": "owner",
          "type": "address"
        }
      ],
      "name": "ERC721InvalidOwner",
      "type": "error"
    },
    {
      "inputs": [
        {
          "internalType": "address",
          "name": "receiver",
          "type": "address"
        }
      ],
      "name": "ERC721InvalidReceiver",
      "type": "error"
    },
    {
      "inputs": [
        {
          "internalType": "address",
          "name": "sender",
          "type": "address"
        }
      ],
      "name": "ERC721InvalidSender",
      "type": "error"
    },
    {
      "inputs": [
        {
          "internalType": "uint256",
          "name": "tokenId",
          "type": "uint256"
        }
      ],
      "name": "ERC721NonexistentToken",
      "type": "error"
    },
    {
      "inputs": [
        {
          "internalType": "address",
          "name": "owner",
          "type": "address"
        }
      ],
      "name": "OwnableInvalidOwner",
      "type": "error"
    },
    {
      "inputs": [
        {
          "internalType": "address",
          "name": "account",
          "type": "address"
        }
      ],
      "name": "OwnableUnauthorizedAccount",
      "type": "error"
    },
    {
      "anonymous": false,
      "inputs": [
        {
          "indexed": true,
          "internalType": "address",
          "name": "owner",
          "type": "address"
        },
        {
          "indexed": true,
          "internalType": "address",
          "name": "approved",
          "type": "address"
        },
        {
          "indexed": true,
          "internalType": "uint256",
          "name": "tokenId",
          "type": "uint256"
        }
      ],
      "name": "Approval",
      "type": "event"
    },
    {
      "anonymous": false,
      "inputs": [
        {
          "indexed": true,
          "internalType": "address",
          "name": "owner",
          "type": "address"
        },
        {
          "indexed": true,
          "internalType": "address",
          "name": "operator",
          "type": "address"
        },
        {
          "indexed": false,
          "internalType": "bool",
          "name": "approved",
          "type": "bool"
        }
      ],
      "name": "ApprovalForAll",
      "type": "event"
    },
    {
      "anonymous": false,
      "inputs": [
        {
          "indexed": true,
          "internalType": "address",
          "name": "previousOwner",
          "type": "address"
        },
        {
          "indexed": true,
          "internalType": "address",
          "name": "newOwner",
          "type": "address"
        }
      ],
      "name": "OwnershipTransferred",
      "type": "event"
    },
    {
      "anonymous": false,
      "inputs": [
        {
          "indexed": true,
          "internalType": "address",
          "name": "from",
          "type": "address"
        },
        {
          "indexed": true,
          "internalType": "address",
          "name": "to",
          "type": "address"
        },
        {
          "indexed": true,
          "internalType": "uint256",
          "name": "tokenId",
          "type": "uint256"
        }
      ],
      "name": "Transfer",
      "type": "event"
    },
    {
      "anonymous": false,
      "inputs": [
        {
          "indexed": true,
          "internalType": "uint256",
          "name": "tokenId",
          "type": "uint256"
        },
        {
          "indexed": false,
          "internalType": "uint256",
          "name": "newLevel",
          "type": "uint256"
        }
      ],
      "name": "WarriorLevelUp",
      "type": "event"
    },
    {
      "anonymous": false,
      "inputs": [
        {
          "indexed": true,
          "internalType": "address",
          "name": "player",
          "type": "address"
        },
        {
          "indexed": true,
          "internalType": "uint256",
          "name": "tokenId",
          "type": "uint256"
        },
        {
          "indexed": false,
          "internalType": "string",
          "name": "class",
          "type": "string"
        }
      ],
      "name": "WarriorMinted",
      "type": "event"
    },
    {
      "inputs": [
        {
          "internalType": "address",
          "name": "to",
          "type": "address"
        },
        {
          "internalType": "uint256",
          "name": "tokenId",
          "type": "uint256"
        }
      ],
      "name": "approve",
      "outputs": [],
      "stateMutability": "nonpayable",
      "type": "function"
    },
    {
      "inputs": [
        {
          "internalType": "address",
          "name": "owner",
          "type": "address"
        }
      ],
      "name": "balanceOf",
      "outputs": [
        {
          "internalType": "uint256",
          "name": "",
          "type": "uint256"
        }
      ],
      "stateMutability": "view",
      "type": "function"
    },
    {
      "inputs": [
        {
          "internalType": "uint256",
          "name": "tokenId",
          "type": "uint256"
        }
      ],
      "name": "getApproved",
      "outputs": [
        {
          "internalType": "address",
          "name": "",
          "type": "address"
        }
      ],
      "stateMutability": "view",
      "type": "function"
    },
    {
      "inputs": [
        {
          "internalType": "address",
          "name": "player",
          "type": "address"
        }
      ],
      "name": "getPlayerWarriors",
      "outputs": [
        {
          "internalType": "uint256[]",
          "name": "",
          "type": "uint256[]"
        }
      ],
      "stateMutability": "view",
      "type": "function"
    },
    {
      "inputs": [
        {
          "internalType": "uint256",
          "name": "tokenId",
          "type": "uint256"
        }
      ],
      "name": "getWarrior",
      "outputs": [
        {
          "components": [
            {
              "internalType": "string",
              "name": "name",
              "type": "string"
            },
            {
              "internalType": "uint256",
              "name": "level",
              "type": "uint256"
            },
            {
              "internalType": "uint256",
              "name": "experience",
              "type": "uint256"
            },
            {
              "internalType": "uint256",
              "name": "strength",
              "type": "uint256"
            },
            {
              "internalType": "uint256",
              "name": "defense",
              "type": "uint256"
            },
            {
              "internalType": "uint256",
              "name": "speed",
              "type": "uint256"
            },
            {
              "internalType": "uint256",
              "name": "mana",
              "type": "uint256"
            },
            {
              "internalType": "string",
              "name": "class",
              "type": "string"
            },
            {
              "internalType": "uint256",
              "name": "lastBattle",
              "type": "uint256"
            },
            {
              "internalType": "bool",
              "name": "isActive",
              "type": "bool"
            }
          ],
          "internalType": "struct WarriorNFT.Warrior",
          "name": "",
          "type": "tuple"
        }
      ],
      "stateMutability": "view",
      "type": "function"
    },
    {
      "inputs": [
        {
          "internalType": "address",
          "name": "owner",
          "type": "address"
        },
        {
          "internalType": "address",
          "name": "operator",
          "type": "address"
        }
      ],
      "name": "isApprovedForAll",
      "outputs": [
        {
          "internalType": "bool",
          "name": "",
          "type": "bool"
        }
      ],
      "stateMutability": "view",
      "type": "function"
    },
    {
      "inputs": [
        {
          "internalType": "uint256",
          "name": "tokenId",
          "type": "uint256"
        }
      ],
      "name": "levelUpWarrior",
      "outputs": [],
      "stateMutability": "nonpayable",
      "type": "function"
    },
    {
      "inputs": [],
      "name": "maxSupply",
      "outputs": [
        {
          "internalType": "uint256",
          "name": "",
          "type": "uint256"
        }
      ],
      "stateMutability": "view",
      "type": "function"
    },
    {
      "inputs": [],
      "name": "mintPrice",
      "outputs": [
        {
          "internalType": "uint256",
          "name": "",
          "type": "uint256"
        }
      ],
      "stateMutability": "view",
      "type": "function"
    },
    {
      "inputs": [
        {
          "internalType": "string",
          "name": "name",
          "type": "string"
        },
        {
          "internalType": "string",
          "name": "class",
          "type": "string"
        }
      ],
      "name": "mintWarrior",
      "outputs": [],
      "stateMutability": "payable",
      "type": "function"
    },
    {
      "inputs": [],
      "name": "name",
      "outputs": [
        {
          "internalType": "string",
          "name": "",
          "type": "string"
        }
      ],
      "stateMutability": "view",
      "type": "function"
    },
    {
      "inputs": [],
      "name": "owner",
      "outputs": [
        {
          "internalType": "address",
          "name": "",
          "type": "address"
        }
      ],
      "stateMutability": "view",
      "type": "function"
    },
    {
      "inputs": [
        {
          "internalType": "uint256",
          "name": "tokenId",
          "type": "uint256"
        }
      ],
      "name": "ownerOf",
      "outputs": [
        {
          "internalType": "address",
          "name": "",
          "type": "address"
        }
      ],
      "stateMutability": "view",
      "type": "function"
    },
    {
      "inputs": [
        {
          "internalType": "address",
          "name": "",
          "type": "address"
        },
        {
          "internalType": "uint256",
          "name": "",
          "type": "uint256"
        }
      ],
      "name": "playerWarriors",
      "outputs": [
        {
          "internalType": "uint256",
          "name": "",
          "type": "uint256"
        }
      ],
      "stateMutability": "view",
      "type": "function"
    },
    {
      "inputs": [],
      "name": "renounceOwnership",
      "outputs": [],
      "stateMutability": "nonpayable",
      "type": "function"
    },
    {
      "inputs": [
        {
          "internalType": "address",
          "name": "from",
          "type": "address"
        },
        {
          "internalType": "address",
          "name": "to",
          "type": "address"
        },
        {
          "internalType": "uint256",
          "name": "tokenId",
          "type": "uint256"
        }
      ],
      "name": "safeTransferFrom",
      "outputs": [],
      "stateMutability": "nonpayable",
      "type": "function"
    },
    {
      "inputs": [
        {
          "internalType": "address",
          "name": "from",
          "type": "address"
        },
        {
          "internalType": "address",
          "name": "to",
          "type": "address"
        },
        {
          "internalType": "uint256",
          "name": "tokenId",
          "type": "uint256"
        },
        {
          "internalType": "bytes",
          "name": "data",
          "type": "bytes"
        }
      ],
      "name": "safeTransferFrom",
      "outputs": [],
      "stateMutability": "nonpayable",
      "type": "function"
    },
    {
      "inputs": [
        {
          "internalType": "address",
          "name": "operator",
          "type": "address"
        },
        {
          "internalType": "bool",
          "name": "approved",
          "type": "bool"
        }
      ],
      "name": "setApprovalForAll",
      "outputs": [],
      "stateMutability": "nonpayable",
      "type": "function"
    },
    {
      "inputs": [
        {
          "internalType": "string",
          "name": "baseURI",
          "type": "string"
        }
      ],
      "name": "setBaseURI",
      "outputs": [],
      "stateMutability": "nonpayable",
      "type": "function"
    },
    {
      "inputs": [
        {
          "internalType": "uint256",
          "name": "newPrice",
          "type": "uint256"
        }
      ],
      "name": "setMintPrice",
      "outputs": [],
      "stateMutability": "nonpayable",
      "type": "function"
    },
    {
      "inputs": [
        {
          "internalType": "bytes4",
          "name": "interfaceId",
          "type": "bytes4"
        }
      ],
      "name": "supportsInterface",
      "outputs": [
        {
          "internalType": "bool",
          "name": "",
          "type": "bool"
        }
      ],
      "stateMutability": "view",
      "type": "function"
    },
    {
      "inputs": [],
      "name": "symbol",
      "outputs": [
        {
          "internalType": "string",
          "name": "",
          "type": "string"
        }
      ],
      "stateMutability": "view",
      "type": "function"
    },
    {
      "inputs": [
        {
          "internalType": "uint256",
          "name": "tokenId",
          "type": "uint256"
        }
      ],
      "name": "tokenURI",
      "outputs": [
        {
          "internalType": "string",
          "name": "",
          "type": "string"
        }
      ],
      "stateMutability": "view",
      "type": "function"
    },
    {
      "inputs": [],
      "name": "totalSupply",
      "outputs": [
        {
          "internalType": "uint256",
          "name": "",
          "type": "uint256"
        }
      ],
      "stateMutability": "view",
      "type": "function"
    },
    {
      "inputs": [
        {
          "internalType": "address",
          "name": "from",
          "type": "address"
        },
        {
          "internalType": "address",
          "name": "to",
          "type": "address"
        },
        {
          "internalType": "uint256",
          "name": "tokenId",
          "type": "uint256"
        }
      ],
      "name": "transferFrom",
      "outputs": [],
      "stateMutability": "nonpayable",
      "type": "function"
    },
    {
      "inputs": [
        {
          "internalType": "address",
          "name": "newOwner",
          "type": "address"
        }
      ],
      "name": "transferOwnership",
      "outputs": [],
      "stateMutability": "nonpayable",
      "type": "function"
    },
    {
      "inputs": [
        {
          "internalType": "uint256",
          "name": "",
          "type": "uint256"
        }
      ],
      "name": "warriors",
      "outputs": [
        {
          "internalType": "string",
          "name": "name",
          "type": "string"
        },
        {
          "internalType": "uint256",
          "name": "level",
          "type": "uint256"
        },
        {
          "internalType": "uint256",
          "name": "experience",
          "type": "uint256"
        },
        {
          "internalType": "uint256",
          "name": "strength",
          "type": "uint256"
        },
        {
          "internalType": "uint256",
          "name": "defense",
          "type": "uint256"
        },
        {
          "internalType": "uint256",
          "name": "speed",
          "type": "uint256"
        },
        {
          "internalType": "uint256",
          "name": "mana",
          "type": "uint256"
        },
        {
          "internalType": "string",
          "name": "class",
          "type": "string"
        },
        {
          "internalType": "uint256",
          "name": "lastBattle",
          "type": "uint256"
        },
        {
          "internalType": "bool",
          "name": "isActive",
          "type": "bool"
        }
      ],
      "stateMutability": "view",
      "type": "function"
    },
    {
      "inputs": [],
      "name": "withdraw",
      "outputs": [],
      "stateMutability": "nonpayable",
      "type": "function"
    }
  ],
  "bytecode": "0x6080604052662386f26fc10000600b55612710600c553480156200002257600080fd5b506040516200253638038062002536833981016040819052620000459162000168565b336040518060400160405280601081526020016f506f6c79676f6e2057617272696f727360801b81525060405180604001604052806004815260200163282ba0a960e11b81525081600090816200009d9190620002cc565b506001620000ac8282620002cc565b5050506001600160a01b038116620000de57604051631e4fbdf760e01b81526000600482015260240160405180910390fd5b620000e98162000100565b50600a620000f88282620002cc565b505062000398565b600680546001600160a01b038381166001600160a01b0319831681179093556040519116919082907f8be0079c531659141344cd1fd0a4f28419497f9722a3daafe3b4186f6b6457e090600090a35050565b634e487b7160e01b600052604160045260246000fd5b600060208083850312156200017c57600080fd5b82516001600160401b03808211156200019457600080fd5b818501915085601f830112620001a957600080fd5b815181811115620001be57620001be62000152565b604051601f8201601f19908116603f01168101908382118183101715620001e957620001e962000152565b8160405282815288868487010111156200020257600080fd5b600093505b8284101562000226578484018601518185018701529285019262000207565b600086848301015280965050505050505092915050565b600181811c908216806200025257607f821691505b6020821081036200027357634e487b7160e01b600052602260045260246000fd5b50919050565b601f821115620002c757600081815260208120601f850160051c81016020861015620002a25750805b601f850160051c820191505b81811015620002c357828155600101620002ae565b5050505b505050565b81516001600160401b03811115620002e857620002e862000152565b6200030081620002f984546200023d565b8462000279565b602080601f8311600181146200033857600084156200031f5750858301515b600019600386901b1c1916600185901b178555620002c3565b600085815260208120601f198616915b82811015620003695788860151825594840194600190910190840162000348565b5085821015620003885787850151600019600388901b60f8161c191681555b5050505050600190811b01905550565b61218e80620003a86000396000f3fe6080604052600436106101b75760003560e01c806370a08231116100ec578063b88d4fde1161008a578063d5abeb0111610064578063d5abeb01146104e2578063e985e9c5146104f8578063f2fde38b14610518578063f4a0a5281461053857600080fd5b8063b88d4fde1461048f578063c62b8664146104af578063c87b56dd146104c257600080fd5b80638da5cb5b116100c65780638da5cb5b1461040f57806395d89b411461042d578063a11f296714610442578063a22cb4651461046f57600080fd5b806370a08231146103ba578063715018a6146103da57806387616970146103ef57600080fd5b806329372ad01161015957806342842e0e1161013357806342842e0e1461034457806355f804b3146103645780636352211e146103845780636817c76c146103a457600080fd5b806329372ad0146102e2578063395adbd81461030f5780633ccfd60b1461032f57600080fd5b8063095ea7b311610195578063095ea7b31461024b57806318160ddd1461026d5780631a1707121461028c57806323b872dd146102c257600080fd5b806301ffc9a7146101bc57806306fdde03146101f1578063081812fc14610213575b600080fd5b3480156101c857600080fd5b506101dc6101d7366004611a40565b610558565b60405190151581526020015b60405180910390f35b3480156101fd57600080fd5b506102066105aa565b6040516101e89190611aad565b34801561021f57600080fd5b5061023361022e366004611ac0565b61063c565b6040516001600160a01b0390911681526020016101e8565b34801561025757600080fd5b5061026b610266366004611af5565b610665565b005b34801561027957600080fd5b506007545b6040519081526020016101e8565b34801561029857600080fd5b506102ac6102a7366004611ac0565b610674565b6040516101e89a99989796959493929190611b1f565b3480156102ce57600080fd5b5061026b6102dd366004611b8c565b6107d4565b3480156102ee57600080fd5b506103026102fd366004611ac0565b610864565b6040516101e89190611bc8565b34801561031b57600080fd5b5061026b61032a366004611ac0565b610a55565b34801561033b57600080fd5b5061026b610be3565b34801561035057600080fd5b5061026b61035f366004611b8c565b610c27565b34801561037057600080fd5b5061026b61037f366004611d0f565b610c47565b34801561039057600080fd5b5061023361039f366004611ac0565b610c5b565b3480156103b057600080fd5b5061027e600b5481565b3480156103c657600080fd5b5061027e6103d5366004611d44565b610c66565b3480156103e657600080fd5b5061026b610cae565b3480156103fb57600080fd5b5061027e61040a366004611af5565b610cc2565b34801561041b57600080fd5b506006546001600160a01b0316610233565b34801561043957600080fd5b50610206610cf3565b34801561044e57600080fd5b5061046261045d366004611d44565b610d02565b6040516101e89190611d5f565b34801561047b57600080fd5b5061026b61048a366004611da3565b610d6e565b34801561049b57600080fd5b5061026b6104aa366004611ddf565b610d79565b61026b6104bd366004611e5b565b610d91565b3480156104ce57600080fd5b506102066104dd366004611ac0565b611009565b3480156104ee57600080fd5b5061027e600c5481565b34801561050457600080fd5b506101dc610513366004611ebf565b611071565b34801561052457600080fd5b5061026b610533366004611d44565b61109f565b34801561054457600080fd5b5061026b610553366004611ac0565b6110da565b60006001600160e01b031982166380ac58cd60e01b148061058957506001600160e01b03198216635b5e139f60e01b145b806105a457506301ffc9a760e01b6001600160e01b03198316145b92915050565b6060600080546105b990611ef2565b80601f01602080910402602001604051908101604052809291908181526020018280546105e590611ef2565b80156106325780601f1061060757610100808354040283529160200191610632565b820191906000526020600020905b81548152906001019060200180831161061557829003601f168201915b5050505050905090565b6000610647826110e7565b506000828152600460205260409020546001600160a01b03166105a4565b610670828233611120565b5050565b60086020526000908152604090208054819061068f90611ef2565b80601f01602080910402602001604051908101604052809291908181526020018280546106bb90611ef2565b80156107085780601f106106dd57610100808354040283529160200191610708565b820191906000526020600020905b8154815290600101906020018083116106eb57829003601f168201915b50505050509080600101549080600201549080600301549080600401549080600501549080600601549080600701805461074190611ef2565b80601f016020809104026020016040519081016040528092919081815260200182805461076d90611ef2565b80156107ba5780601f1061078f576101008083540402835291602001916107ba565b820191906000526020600020905b81548152906001019060200180831161079d57829003601f168201915b50505050600883015460099093015491929160ff1690508a565b6001600160a01b03821661080357604051633250574960e11b8152600060048201526024015b60405180910390fd5b600061081083833361112d565b9050836001600160a01b0316816001600160a01b03161461085e576040516364283d7b60e01b81526001600160a01b03808616600483015260248201849052821660448201526064016107fa565b50505050565b6108bc6040518061014001604052806060815260200160008152602001600081526020016000815260200160008152602001600081526020016000815260200160608152602001600081526020016000151581525090565b60008281526008602052604090819020815161014081019092528054829082906108e590611ef2565b80601f016020809104026020016040519081016040528092919081815260200182805461091190611ef2565b801561095e5780601f106109335761010080835404028352916020019161095e565b820191906000526020600020905b81548152906001019060200180831161094157829003601f168201915b505050505081526020016001820154815260200160028201548152602001600382015481526020016004820154815260200160058201548152602001600682015481526020016007820180546109b390611ef2565b80601f01602080910402602001604051908101604052809291908181526020018280546109df90611ef2565b8015610a2c5780601f10610a0157610100808354040283529160200191610a2c565b820191906000526020600020905b815481529060010190602001808311610a0f57829003601f168201915b50505091835250506008820154602082015260099091015460ff16151560409091015292915050565b33610a5f82610c5b565b6001600160a01b031614610aa55760405162461bcd60e51b815260206004820152600d60248201526c2737ba103a34329037bbb732b960991b60448201526064016107fa565b60008181526008602052604090206001810154610ac3906064611f42565b81600201541015610b165760405162461bcd60e51b815260206004820152601760248201527f496e73756666696369656e7420657870657269656e636500000000000000000060448201526064016107fa565b600181018054906000610b2883611f59565b9190505550600081600201819055506005816003016000828254610b4c9190611f72565b925050819055506003816004016000828254610b689190611f72565b925050819055506002816005016000828254610b849190611f72565b925050819055506004816006016000828254610ba09190611f72565b9091555050600181015460405190815282907f7b117ea6c895ad6a0a4153d629a3b9f97eae318d5dba9d9c01226d076245dac29060200160405180910390a25050565b610beb611226565b6006546040516001600160a01b03909116904780156108fc02916000818181858888f19350505050158015610c24573d6000803e3d6000fd5b50565b610c4283838360405180602001604052806000815250610d79565b505050565b610c4f611226565b600a6106708282611fcb565b60006105a4826110e7565b60006001600160a01b038216610c92576040516322718ad960e21b8152600060048201526024016107fa565b506001600160a01b031660009081526003602052604090205490565b610cb6611226565b610cc06000611253565b565b60096020528160005260406000208181548110610cde57600080fd5b90600052602060002001600091509150505481565b6060600180546105b990611ef2565b6001600160a01b038116600090815260096020908152604091829020805483518184028101840190945280845260609392830182828015610d6257602002820191906000526020600020905b815481526020019060010190808311610d4e575b50505050509050919050565b6106703383836112a5565b610d848484846107d4565b61085e3385858585611344565b600b54341015610dda5760405162461bcd60e51b8152602060048201526014602482015273125b9cdd59999a58da595b9d081c185e5b595b9d60621b60448201526064016107fa565b600c5460075410610e225760405162461bcd60e51b815260206004820152601260248201527113585e081cdd5c1c1b1e481c995858da195960721b60448201526064016107fa565b60008251118015610e3557506014825111155b610e775760405162461bcd60e51b8152602060048201526013602482015272092dcecc2d8d2c840dcc2daca40d8cadccee8d606b1b60448201526064016107fa565b60078054906000610e8783611f59565b90915550506007546000808080610e9e868661146f565b9350935093509350604051806101400160405280888152602001600181526020016000815260200185815260200184815260200183815260200182815260200187815260200142815260200160011515815250600860008781526020019081526020016000206000820151816000019081610f199190611fcb565b506020820151600182015560408201516002820155606082015160038201556080820151600482015560a0820151600582015560c0820151600682015560e08201516007820190610f6a9082611fcb565b506101008201516008820155610120909101516009918201805460ff19169115159190911790553360008181526020928352604081208054600181018255908252929020909101869055610fbe908661167b565b84336001600160a01b03167f4474c668e49b0702ae2e6f483475aa3d8a62b2b20e9fe3386890f98d1ef946ed88604051610ff89190611aad565b60405180910390a350505050505050565b6060611014826110e7565b50600061101f6116e0565b9050600081511161103f576040518060200160405280600081525061106a565b80611049846116ef565b60405160200161105a92919061208b565b6040516020818303038152906040525b9392505050565b6001600160a01b03918216600090815260056020908152604080832093909416825291909152205460ff1690565b6110a7611226565b6001600160a01b0381166110d157604051631e4fbdf760e01b8152600060048201526024016107fa565b610c2481611253565b6110e2611226565b600b55565b6000818152600260205260408120546001600160a01b0316806105a457604051637e27328960e01b8152600481018490526024016107fa565b610c428383836001611782565b6000828152600260205260408120546001600160a01b039081169083161561115a5761115a818486611888565b6001600160a01b0381161561119857611177600085600080611782565b6001600160a01b038116600090815260036020526040902080546000190190555b6001600160a01b038516156111c7576001600160a01b0385166000908152600360205260409020805460010190555b60008481526002602052604080822080546001600160a01b0319166001600160a01b0389811691821790925591518793918516917fddf252ad1be2c89b69c2b068fc378daa952ba7f163c4a11628f55a4df523b3ef91a4949350505050565b6006546001600160a01b03163314610cc05760405163118cdaa760e01b81523360048201526024016107fa565b600680546001600160a01b038381166001600160a01b0319831681179093556040519116919082907f8be0079c531659141344cd1fd0a4f28419497f9722a3daafe3b4186f6b6457e090600090a35050565b6001600160a01b0382166112d757604051630b61174360e31b81526001600160a01b03831660048201526024016107fa565b6001600160a01b03838116600081815260056020908152604080832094871680845294825291829020805460ff191686151590811790915591519182527f17307eab39ab6107e8899845ad3d59bd9653f200f220920489ca2b5937696c31910160405180910390a3505050565b6001600160a01b0383163b1561146857604051630a85bd0160e11b81526001600160a01b0384169063150b7a02906113869088908890879087906004016120ba565b6020604051808303816000875af19250505080156113c1575060408051601f3d908101601f191682019092526113be918101906120f7565b60015b61142a573d8080156113ef576040519150601f19603f3d011682016040523d82523d6000602084013e6113f4565b606091505b50805160000361142257604051633250574960e11b81526001600160a01b03851660048201526024016107fa565b805181602001fd5b6001600160e01b03198116630a85bd0160e11b1461146657604051633250574960e11b81526001600160a01b03851660048201526024016107fa565b505b5050505050565b6000806000806000868660405160200161148a929190612114565b60408051601f19818403018152828252805160209182012083830190925260078352663bb0b93934b7b960c91b928101929092528851918901919091209091507f9dbc35766ca817e0a86537f992b7dd0c2118439300a446cf4a4005836e233b6601611562576114fb601f82612136565b611506906046611f72565b611515601f600884901c612136565b61152090603c611f72565b61152f6015601085901c612136565b61153a906028611f72565b6115496015601886901c612136565b61155490601e611f72565b945094509450945050611672565b6040805180820190915260048152636d61676560e01b6020918201528751908801207f4254f2f65eff81d6386b9627d9ce2c5ffbd7579fab6417057cffb0725a2490670161160e576115b5601582612136565b6115c090601e611f72565b6115cf6015600884901c612136565b6115da906028611f72565b6115e9601f601085901c612136565b6115f4906032611f72565b6116036015601886901c612136565b611554906050611f72565b611619601f82612136565b611624906032611f72565b611633601a600884901c612136565b61163e90602d611f72565b61164d601f601085901c612136565b611658906046611f72565b6116676015601886901c612136565b611554906032611f72565b92959194509250565b6001600160a01b0382166116a557604051633250574960e11b8152600060048201526024016107fa565b60006116b38383600061112d565b90506001600160a01b03811615610c42576040516339e3563760e11b8152600060048201526024016107fa565b6060600a80546105b990611ef2565b606060006116fc836118ec565b600101905060008167ffffffffffffffff81111561171c5761171c611c63565b6040519080825280601f01601f191660200182016040528015611746576020820181803683370190505b5090508181016020015b600019016f181899199a1a9b1b9c1cb0b131b232b360811b600a86061a8153600a850494508461175057509392505050565b808061179657506001600160a01b03821615155b156118585760006117a6846110e7565b90506001600160a01b038316158015906117d25750826001600160a01b0316816001600160a01b031614155b80156117e557506117e38184611071565b155b1561180e5760405163a9fbf51f60e01b81526001600160a01b03841660048201526024016107fa565b81156118565783856001600160a01b0316826001600160a01b03167f8c5be1e5ebec7d5bd14f71427d1e84f3dd0314c0f7b2291e5b200ac8c7c3b92560405160405180910390a45b505b5050600090815260046020526040902080546001600160a01b0319166001600160a01b0392909216919091179055565b6118938383836119c4565b610c42576001600160a01b0383166118c157604051637e27328960e01b8152600481018290526024016107fa565b60405163177e802f60e01b81526001600160a01b0383166004820152602481018290526044016107fa565b60008072184f03e93ff9f4daa797ed6e38ed64bf6a1f0160401b831061192b5772184f03e93ff9f4daa797ed6e38ed64bf6a1f0160401b830492506040015b6d04ee2d6d415b85acef81000000008310611957576d04ee2d6d415b85acef8100000000830492506020015b662386f26fc10000831061197557662386f26fc10000830492506010015b6305f5e100831061198d576305f5e100830492506008015b61271083106119a157612710830492506004015b606483106119b3576064830492506002015b600a83106105a45760010192915050565b60006001600160a01b03831615801590611a225750826001600160a01b0316846001600160a01b031614806119fe57506119fe8484611071565b80611a2257506000828152600460205260409020546001600160a01b038481169116145b949350505050565b6001600160e01b031981168114610c2457600080fd5b600060208284031215611a5257600080fd5b813561106a81611a2a565b60005b83811015611a78578181015183820152602001611a60565b50506000910152565b60008151808452611a99816020860160208601611a5d565b601f01601f19169290920160200192915050565b60208152600061106a6020830184611a81565b600060208284031215611ad257600080fd5b5035919050565b80356001600160a01b0381168114611af057600080fd5b919050565b60008060408385031215611b0857600080fd5b611b1183611ad9565b946020939093013593505050565b6000610140808352611b338184018e611a81565b90508b60208401528a60408401528960608401528860808401528760a08401528660c084015282810360e0840152611b6b8187611a81565b61010084019590955250509015156101209091015298975050505050505050565b600080600060608486031215611ba157600080fd5b611baa84611ad9565b9250611bb860208501611ad9565b9150604084013590509250925092565b6020815260008251610140806020850152611be7610160850183611a81565b9150602085015160408501526040850151606085015260608501516080850152608085015160a085015260a085015160c085015260c085015160e085015260e0850151610100601f198685030181870152611c428483611a81565b90870151610120878101919091529096015115159190940152509192915050565b634e487b7160e01b600052604160045260246000fd5b600067ffffffffffffffff80841115611c9457611c94611c63565b604051601f8501601f19908116603f01168101908282118183101715611cbc57611cbc611c63565b81604052809350858152868686011115611cd557600080fd5b858560208301376000602087830101525050509392505050565b600082601f830112611d0057600080fd5b61106a83833560208501611c79565b600060208284031215611d2157600080fd5b813567ffffffffffffffff811115611d3857600080fd5b611a2284828501611cef565b600060208284031215611d5657600080fd5b61106a82611ad9565b6020808252825182820181905260009190848201906040850190845b81811015611d9757835183529284019291840191600101611d7b565b50909695505050505050565b60008060408385031215611db657600080fd5b611dbf83611ad9565b915060208301358015158114611dd457600080fd5b809150509250929050565b60008060008060808587031215611df557600080fd5b611dfe85611ad9565b9350611e0c60208601611ad9565b925060408501359150606085013567ffffffffffffffff811115611e2f57600080fd5b8501601f81018713611e4057600080fd5b611e4f87823560208401611c79565b91505092959194509250565b60008060408385031215611e6e57600080fd5b823567ffffffffffffffff80821115611e8657600080fd5b611e9286838701611cef565b93506020850135915080821115611ea857600080fd5b50611eb585828601611cef565b9150509250929050565b60008060408385031215611ed257600080fd5b611edb83611ad9565b9150611ee960208401611ad9565b90509250929050565b600181811c90821680611f0657607f821691505b602082108103611f2657634e487b7160e01b600052602260045260246000fd5b50919050565b634e487b7160e01b600052601160045260246000fd5b80820281158282048414176105a4576105a4611f2c565b600060018201611f6b57611f6b611f2c565b5060010190565b808201808211156105a4576105a4611f2c565b601f821115610c4257600081815260208120601f850160051c81016020861015611fac5750805b601f850160051c820191505b8181101561146657828155600101611fb8565b815167ffffffffffffffff811115611fe557611fe5611c63565b611ff981611ff38454611ef2565b84611f85565b602080601f83116001811461202e57600084156120165750858301515b600019600386901b1c1916600185901b178555611466565b600085815260208120601f198616915b8281101561205d5788860151825594840194600190910190840161203e565b508582101561207b5787850151600019600388901b60f8161c191681555b5050505050600190811b01905550565b6000835161209d818460208801611a5d565b8351908301906120b1818360208801611a5d565b01949350505050565b6001600160a01b03858116825284166020820152604081018390526080606082018190526000906120ed90830184611a81565b9695505050505050565b60006020828403121561210957600080fd5b815161106a81611a2a565b60008351612126818460208801611a5d565b9190910191825250602001919050565b60008261215357634e487b7160e01b600052601260045260246000fd5b50069056fea2646970667358221220b3f8201d9cb7ec569ab6272a3f41727ab3f2aa0b16c522e8b848aba4608e4eb964736f6c63430008140033",
  "linkReferences": {},
  "deployedLinkReferences": {}
}