{
  "_format": "hh-sol-artifact-1",
  "contractName": "PolygonWarriorsGame",
  "sourceName": "contracts/PolygonWarriorsGame.sol",
  "abi": [
    {
      "inputs": [
        {
          "internalType": "address",
          "name": "_gameToken",
          "type": "address"
        },
        {
          "internalType": "address",
          "name": "_warriorNFT",
          "type": "address"
        }
      ],
      "stateMutability": "nonpayable",
      "type": "constructor"
    },
    {
      "inputs": [
        {
          "internalType": "address",
          "name": "owner",
          "type": "address"
        }
      ],
      "name": "OwnableInvalidOwner",
      "type": "error"
    },
    {
      "inputs": [
        {
          "internalType": "address",
          "name": "account",
          "type": "address"
        }
      ],
      "name": "OwnableUnauthorizedAccount",
      "type": "error"
    },
    {
      "inputs": [],
      "name": "ReentrancyGuardReentrantCall",
      "type": "error"
    },
    {
      "anonymous": false,
      "inputs": [
        {
          "indexed": true,
          "internalType": "uint256",
          "name": "battleId",
          "type": "uint256"
        },
        {
          "indexed": false,
          "internalType": "address",
          "name": "winner",
          "type": "address"
        },
        {
          "indexed": false,
          "internalType": "uint256",
          "name": "winnerTokenId",
          "type": "uint256"
        }
      ],
      "name": "BattleCompleted",
      "type": "event"
    },
    {
      "anonymous": false,
      "inputs": [
        {
          "indexed": true,
          "internalType": "uint256",
          "name": "battleId",
          "type": "uint256"
        },
        {
          "indexed": false,
          "internalType": "address",
          "name": "player1",
          "type": "address"
        },
        {
          "indexed": false,
          "internalType": "address",
          "name": "player2",
          "type": "address"
        }
      ],
      "name": "BattleStarted",
      "type": "event"
    },
    {
      "anonymous": false,
      "inputs": [
        {
          "indexed": true,
          "internalType": "address",
          "name": "previousOwner",
          "type": "address"
        },
        {
          "indexed": true,
          "internalType": "address",
          "name": "newOwner",
          "type": "address"
        }
      ],
      "name": "OwnershipTransferred",
      "type": "event"
    },
    {
      "anonymous": false,
      "inputs": [
        {
          "indexed": true,
          "internalType": "address",
          "name": "player",
          "type": "address"
        },
        {
          "indexed": false,
          "internalType": "uint256",
          "name": "amount",
          "type": "uint256"
        }
      ],
      "name": "RewardDistributed",
      "type": "event"
    },
    {
      "inputs": [],
      "name": "battleCooldown",
      "outputs": [
        {
          "internalType": "uint256",
          "name": "",
          "type": "uint256"
        }
      ],
      "stateMutability": "view",
      "type": "function"
    },
    {
      "inputs": [],
      "name": "battleCounter",
      "outputs": [
        {
          "internalType": "uint256",
          "name": "",
          "type": "uint256"
        }
      ],
      "stateMutability": "view",
      "type": "function"
    },
    {
      "inputs": [
        {
          "internalType": "uint256",
          "name": "",
          "type": "uint256"
        }
      ],
      "name": "battles",
      "outputs": [
        {
          "internalType": "uint256",
          "name": "warrior1",
          "type": "uint256"
        },
        {
          "internalType": "uint256",
          "name": "warrior2",
          "type": "uint256"
        },
        {
          "internalType": "address",
          "name": "player1",
          "type": "address"
        },
        {
          "internalType": "address",
          "name": "player2",
          "type": "address"
        },
        {
          "internalType": "uint256",
          "name": "winner",
          "type": "uint256"
        },
        {
          "internalType": "uint256",
          "name": "timestamp",
          "type": "uint256"
        },
        {
          "internalType": "bool",
          "name": "completed",
          "type": "bool"
        }
      ],
      "stateMutability": "view",
      "type": "function"
    },
    {
      "inputs": [],
      "name": "claimDailyReward",
      "outputs": [],
      "stateMutability": "nonpayable",
      "type": "function"
    },
    {
      "inputs": [],
      "name": "emergencyWithdraw",
      "outputs": [],
      "stateMutability": "nonpayable",
      "type": "function"
    },
    {
      "inputs": [],
      "name": "gameToken",
      "outputs": [
        {
          "internalType": "contract WarriorToken",
          "name": "",
          "type": "address"
        }
      ],
      "stateMutability": "view",
      "type": "function"
    },
    {
      "inputs": [
        {
          "internalType": "uint256",
          "name": "battleId",
          "type": "uint256"
        }
      ],
      "name": "getBattle",
      "outputs": [
        {
          "components": [
            {
              "internalType": "uint256",
              "name": "warrior1",
              "type": "uint256"
            },
            {
              "internalType": "uint256",
              "name": "warrior2",
              "type": "uint256"
            },
            {
              "internalType": "address",
              "name": "player1",
              "type": "address"
            },
            {
              "internalType": "address",
              "name": "player2",
              "type": "address"
            },
            {
              "internalType": "uint256",
              "name": "winner",
              "type": "uint256"
            },
            {
              "internalType": "uint256",
              "name": "timestamp",
              "type": "uint256"
            },
            {
              "internalType": "bool",
              "name": "completed",
              "type": "bool"
            }
          ],
          "internalType": "struct PolygonWarriorsGame.Battle",
          "name": "",
          "type": "tuple"
        }
      ],
      "stateMutability": "view",
      "type": "function"
    },
    {
      "inputs": [
        {
          "internalType": "address",
          "name": "player",
          "type": "address"
        }
      ],
      "name": "getPlayerStats",
      "outputs": [
        {
          "components": [
            {
              "internalType": "address",
              "name": "player",
              "type": "address"
            },
            {
              "internalType": "uint256",
              "name": "wins",
              "type": "uint256"
            },
            {
              "internalType": "uint256",
              "name": "losses",
              "type": "uint256"
            },
            {
              "internalType": "uint256",
              "name": "totalBattles",
              "type": "uint256"
            },
            {
              "internalType": "uint256",
              "name": "rating",
              "type": "uint256"
            }
          ],
          "internalType": "struct PolygonWarriorsGame.Leaderboard",
          "name": "",
          "type": "tuple"
        }
      ],
      "stateMutability": "view",
      "type": "function"
    },
    {
      "inputs": [
        {
          "internalType": "address",
          "name": "",
          "type": "address"
        }
      ],
      "name": "lastBattleTime",
      "outputs": [
        {
          "internalType": "uint256",
          "name": "",
          "type": "uint256"
        }
      ],
      "stateMutability": "view",
      "type": "function"
    },
    {
      "inputs": [
        {
          "internalType": "address",
          "name": "",
          "type": "address"
        }
      ],
      "name": "leaderboard",
      "outputs": [
        {
          "internalType": "address",
          "name": "player",
          "type": "address"
        },
        {
          "internalType": "uint256",
          "name": "wins",
          "type": "uint256"
        },
        {
          "internalType": "uint256",
          "name": "losses",
          "type": "uint256"
        },
        {
          "internalType": "uint256",
          "name": "totalBattles",
          "type": "uint256"
        },
        {
          "internalType": "uint256",
          "name": "rating",
          "type": "uint256"
        }
      ],
      "stateMutability": "view",
      "type": "function"
    },
    {
      "inputs": [],
      "name": "owner",
      "outputs": [
        {
          "internalType": "address",
          "name": "",
          "type": "address"
        }
      ],
      "stateMutability": "view",
      "type": "function"
    },
    {
      "inputs": [],
      "name": "participationReward",
      "outputs": [
        {
          "internalType": "uint256",
          "name": "",
          "type": "uint256"
        }
      ],
      "stateMutability": "view",
      "type": "function"
    },
    {
      "inputs": [],
      "name": "renounceOwnership",
      "outputs": [],
      "stateMutability": "nonpayable",
      "type": "function"
    },
    {
      "inputs": [
        {
          "internalType": "uint256",
          "name": "newCooldown",
          "type": "uint256"
        }
      ],
      "name": "setBattleCooldown",
      "outputs": [],
      "stateMutability": "nonpayable",
      "type": "function"
    },
    {
      "inputs": [
        {
          "internalType": "uint256",
          "name": "winner",
          "type": "uint256"
        },
        {
          "internalType": "uint256",
          "name": "participation",
          "type": "uint256"
        }
      ],
      "name": "setRewards",
      "outputs": [],
      "stateMutability": "nonpayable",
      "type": "function"
    },
    {
      "inputs": [
        {
          "internalType": "uint256",
          "name": "myWarriorId",
          "type": "uint256"
        },
        {
          "internalType": "uint256",
          "name": "opponentWarriorId",
          "type": "uint256"
        }
      ],
      "name": "startBattle",
      "outputs": [],
      "stateMutability": "nonpayable",
      "type": "function"
    },
    {
      "inputs": [
        {
          "internalType": "address",
          "name": "newOwner",
          "type": "address"
        }
      ],
      "name": "transferOwnership",
      "outputs": [],
      "stateMutability": "nonpayable",
      "type": "function"
    },
    {
      "inputs": [],
      "name": "warriorNFT",
      "outputs": [
        {
          "internalType": "contract WarriorNFT",
          "name": "",
          "type": "address"
        }
      ],
      "stateMutability": "view",
      "type": "function"
    },
    {
      "inputs": [],
      "name": "winnerReward",
      "outputs": [
        {
          "internalType": "uint256",
          "name": "",
          "type": "uint256"
        }
      ],
      "stateMutability": "view",
      "type": "function"
    }
  ],
  "bytecode": "0x608060405261012c60085568056bc75e2d6310000060095568015af1d78b58c40000600a553480156200003157600080fd5b50604051620016db380380620016db83398101604081905262000054916200012a565b33806200007b57604051631e4fbdf760e01b81526000600482015260240160405180910390fd5b6200008681620000bd565b5060018055600280546001600160a01b039384166001600160a01b0319918216179091556003805492909316911617905562000162565b600080546001600160a01b038381166001600160a01b0319831681178455604051919092169283917f8be0079c531659141344cd1fd0a4f28419497f9722a3daafe3b4186f6b6457e09190a35050565b80516001600160a01b03811681146200012557600080fd5b919050565b600080604083850312156200013e57600080fd5b62000149836200010d565b915062000159602084016200010d565b90509250929050565b61156980620001726000396000f3fe608060405234801561001057600080fd5b50600436106101215760003560e01c806383f8b7e2116100ad578063c3dfdae611610071578063c3dfdae61461036c578063d1006a6f1461037f578063d1d33d2014610388578063db2e21bc14610401578063f2fde38b1461040957600080fd5b806383f8b7e21461033857806389afec6d146103405780638da5cb5b14610349578063a9b9be3f1461035a578063b9705a031461036357600080fd5b8063606d2e96116100f4578063606d2e96146101f257806364a291aa14610291578063654e51e7146102a45780636dd0ce7a146102b7578063715018a61461033057600080fd5b80630af5b928146101265780631f19565d146101565780633daa6ba9146101845780634fd66eae14610199575b600080fd5b600354610139906001600160a01b031681565b6040516001600160a01b0390911681526020015b60405180910390f35b610176610164366004611240565b60066020526000908152604090205481565b60405190815260200161014d565b610197610192366004611264565b61041c565b005b6101ac6101a7366004611240565b61080f565b60405161014d919081516001600160a01b031681526020808301519082015260408083015190820152606080830151908201526080918201519181019190915260a00190565b61024e610200366004611286565b60046020819052600091825260409091208054600182015460028301546003840154948401546005850154600690950154939592946001600160a01b03928316949290931692909160ff1687565b6040805197885260208801969096526001600160a01b0394851695870195909552929091166060850152608084015260a0830152151560c082015260e00161014d565b61019761029f366004611286565b6108a5565b6101976102b2366004611264565b6108b2565b6102ca6102c5366004611286565b6108c5565b60405161014d9190600060e0820190508251825260208301516020830152604083015160018060a01b03808216604085015280606086015116606085015250506080830151608083015260a083015160a083015260c0830151151560c083015292915050565b61019761098e565b6101976109a2565b610176600a5481565b6000546001600160a01b0316610139565b61017660075481565b61017660095481565b600254610139906001600160a01b031681565b61017660085481565b6103cf610396366004611240565b600560205260009081526040902080546001820154600283015460038401546004909401546001600160a01b0390931693919290919085565b604080516001600160a01b0390961686526020860194909452928401919091526060830152608082015260a00161014d565b610197610a56565b610197610417366004611240565b610a9b565b610424610ad6565b6003546040516331a9108f60e11b81526004810184905233916001600160a01b031690636352211e90602401602060405180830381865afa15801561046d573d6000803e3d6000fd5b505050506040513d601f19601f82011682018060405250810190610491919061129f565b6001600160a01b0316146104df5760405162461bcd60e51b815260206004820152601060248201526f2737ba103cb7bab9103bb0b93934b7b960811b60448201526064015b60405180910390fd5b6003546040516331a9108f60e11b81526004810183905233916001600160a01b031690636352211e90602401602060405180830381865afa158015610528573d6000803e3d6000fd5b505050506040513d601f19601f8201168201806040525081019061054c919061129f565b6001600160a01b03160361059b5760405162461bcd60e51b815260206004820152601660248201527521b0b73737ba103130ba3a3632903cb7bab939b2b63360511b60448201526064016104d6565b600854336000908152600660205260409020546105b891906112d2565b4210156106005760405162461bcd60e51b8152602060048201526016602482015275426174746c6520636f6f6c646f776e2061637469766560501b60448201526064016104d6565b6003546040516331a9108f60e11b8152600481018390526000916001600160a01b031690636352211e90602401602060405180830381865afa15801561064a573d6000803e3d6000fd5b505050506040513d601f19601f8201168201806040525081019061066e919061129f565b6008546001600160a01b038216600090815260066020526040902054919250610696916112d2565b4210156106dc5760405162461bcd60e51b815260206004820152601460248201527327b83837b732b73a1034b71031b7b7b63237bbb760611b60448201526064016104d6565b600780549060006106ec836112eb565b90915550506040805160e0810182528481526020808201858152338385018181526001600160a01b03878116606087018181526000608089018181524260a08b0181815260c08c018481526007805486526004808e528f87209e518f559b5160018f0155985160028e018054918a166001600160a01b0319928316179055955160038e018054919099169616959095179096559051978a019790975592516005890155516006978801805491151560ff19909216919091179055838252958552868120849055858152869020929092559054845191825291810192909252917ffee930d10a180af369f35c753cbe7758b669fd187447cae2f147a9156c0757d0910160405180910390a2610801600754610b00565b5061080b60018055565b5050565b61084a6040518060a0016040528060006001600160a01b03168152602001600081526020016000815260200160008152602001600081525090565b506001600160a01b03908116600090815260056020908152604091829020825160a081018452815490941684526001810154918401919091526002810154918301919091526003810154606083015260040154608082015290565b6108ad610f7c565b600855565b6108ba610f7c565b600991909155600a55565b6109196040518060e00160405280600081526020016000815260200160006001600160a01b0316815260200160006001600160a01b0316815260200160008152602001600081526020016000151581525090565b50600090815260046020818152604092839020835160e0810185528154815260018201549281019290925260028101546001600160a01b039081169483019490945260038101549093166060820152908201546080820152600582015460a082015260069091015460ff16151560c082015290565b610996610f7c565b6109a06000610fa9565b565b6109aa610ad6565b6002546040516340c10f1960e01b81523360048201526802b5e3af16b188000060248201819052916001600160a01b0316906340c10f1990604401600060405180830381600087803b1580156109ff57600080fd5b505af1158015610a13573d6000803e3d6000fd5b50506040518381523392507fe34918ff1c7084970068b53fd71ad6d8b04e9f15d3886cbf006443e6cdc52ea6915060200160405180910390a2506109a060018055565b610a5e610f7c565b600080546040516001600160a01b03909116914780156108fc02929091818181858888f19350505050158015610a98573d6000803e3d6000fd5b50565b610aa3610f7c565b6001600160a01b038116610acd57604051631e4fbdf760e01b8152600060048201526024016104d6565b610a9881610fa9565b600260015403610af957604051633ee5aeb560e01b815260040160405180910390fd5b6002600155565b6000818152600460205260409020600681015460ff1615610b635760405162461bcd60e51b815260206004820152601860248201527f426174746c6520616c726561647920636f6d706c65746564000000000000000060448201526064016104d6565b600354815460405163029372ad60e41b815260048101919091526000916001600160a01b0316906329372ad090602401600060405180830381865afa158015610bb0573d6000803e3d6000fd5b505050506040513d6000823e601f3d908101601f19168201604052610bd8919081019061140f565b600354600184015460405163029372ad60e41b81529293506000926001600160a01b03909216916329372ad091610c159160040190815260200190565b600060405180830381865afa158015610c32573d6000803e3d6000fd5b505050506040513d6000823e601f3d908101601f19168201604052610c5a919081019061140f565b905060008260c001518360a0015184608001518560600151610c7c91906112d2565b610c8691906112d2565b610c9091906112d2565b905060008260c001518360a0015184608001518560600151610cb291906112d2565b610cbc91906112d2565b610cc691906112d2565b85546001870154604080514260208201529081019290925260608201529091506000906064906080016040516020818303038152906040528051906020012060001c610d1291906114fe565b905060008083610d2284876112d2565b1115610d42575050600286015486546001600160a01b0390911690610d5b565b5050600386015460018701546001600160a01b03909116905b6004880181905560068801805460ff1916600117905560028801546003890154610d92916001600160a01b03908116911684610ff9565b6002546009546040516340c10f1960e01b81526001600160a01b03858116600483015260248201929092529116906340c10f1990604401600060405180830381600087803b158015610de357600080fd5b505af1158015610df7573d6000803e3d6000fd5b5050506002890154600091506001600160a01b03848116911614610e285760028901546001600160a01b0316610e37565b60038901546001600160a01b03165b600254600a546040516340c10f1960e01b81526001600160a01b038085166004830152602482019290925292935016906340c10f1990604401600060405180830381600087803b158015610e8a57600080fd5b505af1158015610e9e573d6000803e3d6000fd5b5050604080516001600160a01b0387168152602081018690528d93507f5f6e525271d68d47b9049b49a4ed50e63d6e24b56b74fc5d8d595818fcdfa02392500160405180910390a2826001600160a01b03167fe34918ff1c7084970068b53fd71ad6d8b04e9f15d3886cbf006443e6cdc52ea6600954604051610f2391815260200190565b60405180910390a2806001600160a01b03167fe34918ff1c7084970068b53fd71ad6d8b04e9f15d3886cbf006443e6cdc52ea6600a54604051610f6891815260200190565b60405180910390a250505050505050505050565b6000546001600160a01b031633146109a05760405163118cdaa760e01b81523360048201526024016104d6565b600080546001600160a01b038381166001600160a01b0319831681178455604051919092169283917f8be0079c531659141344cd1fd0a4f28419497f9722a3daafe3b4186f6b6457e09190a35050565b6001600160a01b0383166000908152600560205260408120600301805491611020836112eb565b90915550506001600160a01b038216600090815260056020526040812060030180549161104c836112eb565b9190505550826001600160a01b0316816001600160a01b031603611150576001600160a01b0383166000908152600560205260408120600101805491611091836112eb565b90915550506001600160a01b03821660009081526005602052604081206002018054916110bd836112eb565b90915550506001600160a01b03831660009081526005602052604081206004018054600a92906110ee9084906112d2565b90915550506001600160a01b0382166000908152600560208190526040909120600401541061114b576001600160a01b03821660009081526005602081905260408220600401805491929091611145908490611520565b90915550505b505050565b6001600160a01b0382166000908152600560205260408120600101805491611177836112eb565b90915550506001600160a01b03831660009081526005602052604081206002018054916111a3836112eb565b90915550506001600160a01b03821660009081526005602052604081206004018054600a92906111d49084906112d2565b90915550506001600160a01b0383166000908152600560208190526040909120600401541061114b576001600160a01b03831660009081526005602081905260408220600401805491929091611145908490611520565b6001600160a01b0381168114610a9857600080fd5b60006020828403121561125257600080fd5b813561125d8161122b565b9392505050565b6000806040838503121561127757600080fd5b50508035926020909101359150565b60006020828403121561129857600080fd5b5035919050565b6000602082840312156112b157600080fd5b815161125d8161122b565b634e487b7160e01b600052601160045260246000fd5b808201808211156112e5576112e56112bc565b92915050565b6000600182016112fd576112fd6112bc565b5060010190565b634e487b7160e01b600052604160045260246000fd5b604051610140810167ffffffffffffffff8111828210171561133e5761133e611304565b60405290565b604051601f8201601f1916810167ffffffffffffffff8111828210171561136d5761136d611304565b604052919050565b600082601f83011261138657600080fd5b815167ffffffffffffffff8111156113a0576113a0611304565b60206113b4601f8301601f19168201611344565b82815285828487010111156113c857600080fd5b60005b838110156113e65785810183015182820184015282016113cb565b506000928101909101919091529392505050565b8051801515811461140a57600080fd5b919050565b60006020828403121561142157600080fd5b815167ffffffffffffffff8082111561143957600080fd5b90830190610140828603121561144e57600080fd5b61145661131a565b82518281111561146557600080fd5b61147187828601611375565b8252506020830151602082015260408301516040820152606083015160608201526080830151608082015260a083015160a082015260c083015160c082015260e0830151828111156114c257600080fd5b6114ce87828601611375565b60e083015250610100838101519082015261012091506114ef8284016113fa565b91810191909152949350505050565b60008261151b57634e487b7160e01b600052601260045260246000fd5b500690565b818103818111156112e5576112e56112bc56fea2646970667358221220e1169439373fdb5f750e542b067b693b9d27d59180b3670a9718dc37cc2c5c9f64736f6c63430008140033",
  "linkReferences": {},
  "deployedLinkReferences": {}
}